:100000000C94FF000C9427010C9427010C942701F9
:100010000C9427010C9427010C9427010C942701C0
:100020000C9427010C9427010C9427010C942701B0
:100030000C9427010C9427010C9427010C942701A0
:100040000C9427010C9427010C9427010C94270190
:100050000C9427010C9427010C9427010C94270180
:100060000C9427010C9427010C9427010C94270170
:100070000C9427010C9427010C9427010C94270160
:100080000C9427010C9427010C9427010C94270150
:100090000C9427010C9427010C9427010C94270140
:1000A0000C9427010C9427010C9427010C94270130
:1000B0000C9427010C9427010C9427010C94270120
:1000C0000C9427010C9427010C9427010C94270110
:1000D0000C9427010C9427010C9427010C94270100
:1000E0000C9427010C9427010C9427010C942701F0
:1000F0000C9427010C9427010C9427010C942701E0
:100100000C9427010C9427010C9427010C942701CF
:100110000C9427010C9427010C9427010C942701BF
:100120000C9427010C9427010C9427010C942701AF
:100130000C9427010C9427010C9427010C9427019F
:100140000C9427010C9427010C9427010C9427018F
:100150000C9427010C9427010C9427010C9427017F
:100160000C9427010C9427010C9427010C9427016F
:100170000C9427010C9427010C9427010C9427015F
:100180000C9427010C9427010C9427010C9427014F
:100190000C9427010C9427010C9427010C9427013F
:1001A0000C9427010C9427010C9427010C9427012F
:1001B0000C9427010C9427010C9427010C9427011F
:1001C0000C9427010C9427010C9427010C9427010F
:1001D0000C9427010C9427010C9427010C942701FF
:1001E0000C9427010C9427010C9427010C942701EF
:1001F0000C9427010C9427010C942701060211246A
:100200001FBECFEFCDBFD7E2DEBF10E2A0E0B0E26D
:10021000EAE2F4E002C005900D92A231B107D9F7ED
:1002200020E2A2E1B0E201C01D92A331B207E1F7E2
:1002300010E0CFEFD0E004C02197FE010E940D0234
:10024000CE3FD107C9F70E94DA010C9413020C9437
:1002500000008FEF8093060621E080E8882351F0AC
:10026000922F962311F08093050690E0959587953F
:10027000220FF4CF0895CF93DF93C6E2D6E021E0BA
:1002800028830E94290186E08A95F1F700C082E068
:100290008093250696E09A95F1F700C0888386E062
:1002A0008A95F1F700C0DF91CF910895CF93DF9346
:1002B000EC018FEF80930006809320068FE493EC8F
:1002C0000197F1F700C0000068E3CE010E943B01F6
:1002D00083EC99E00197F1F700C0000068E3CE01DC
:1002E0000E943B0199E49A95F1F7000068E3CE0182
:1002F0000E943B0181E28A95F1F7000068E3CE019C
:100300000E943B0191E29A95F1F7000068E0CE016E
:100310000E943B0181E28A95F1F7000061E0CE0185
:100320000E943B0187EE93E00197F1F700C00000C7
:1003300066E0CE010E943B0191E29A95F1F7000040
:1003400062E0CE010E943B0187EE93E00197F1F756
:1003500000C000006FE0CE010E943B0191E29A953F
:10036000F1F70000DF91CF910895CF93DF93C5E2BD
:10037000D6E021E028830E94290186E08A95F1F7E2
:1003800000C082E0888396E09A95F1F700C08093E0
:10039000260686E08A95F1F700C0DF91CF91089597
:1003A000019739F46F3F7F4F21F482E190E20E9480
:1003B000560108956091022082E190E20E94B50109
:1003C00061E682E190E20E94B50164E782E190E299
:1003D0000E94B50161E682E190E20E94B50161E60A
:1003E00082E190E20E94B50162E682E190E20E9421
:1003F000B50163E682E190E20E94B501E091002040
:10040000F0910120808180930406FFCF6FEF7FEF92
:1004100081E090E00E94D0010895EE0FFF1F05904B
:0A042000F491E02D0994F894FFCF49
:10042A00022071776571776571776571657165719C
:02043A000000C0
:00000001FF
